{
  "contractName": "Escrow",
  "abi": [
    {
      "anonymous": false,
      "inputs": [
        {
          "indexed": false,
          "internalType": "address",
          "name": "buyer",
          "type": "address"
        },
        {
          "indexed": false,
          "internalType": "address",
          "name": "seller",
          "type": "address"
        },
        {
          "indexed": false,
          "internalType": "enum Escrow.State",
          "name": "status",
          "type": "uint8"
        }
      ],
      "name": "Accepted",
      "type": "event"
    },
    {
      "anonymous": false,
      "inputs": [
        {
          "indexed": false,
          "internalType": "address",
          "name": "buyer",
          "type": "address"
        },
        {
          "indexed": false,
          "internalType": "uint256",
          "name": "amount",
          "type": "uint256"
        },
        {
          "indexed": false,
          "internalType": "enum Escrow.State",
          "name": "status",
          "type": "uint8"
        }
      ],
      "name": "Funded",
      "type": "event"
    },
    {
      "anonymous": false,
      "inputs": [
        {
          "indexed": false,
          "internalType": "address",
          "name": "buyer",
          "type": "address"
        },
        {
          "indexed": false,
          "internalType": "address",
          "name": "seller",
          "type": "address"
        },
        {
          "indexed": false,
          "internalType": "enum Escrow.State",
          "name": "status",
          "type": "uint8"
        },
        {
          "indexed": false,
          "internalType": "uint256",
          "name": "amount_released",
          "type": "uint256"
        }
      ],
      "name": "ReleaseFund",
      "type": "event"
    },
    {
      "anonymous": false,
      "inputs": [
        {
          "indexed": false,
          "internalType": "address",
          "name": "_destAddr",
          "type": "address"
        },
        {
          "indexed": false,
          "internalType": "uint256",
          "name": "amount_withdrawn",
          "type": "uint256"
        }
      ],
      "name": "SixMonths",
      "type": "event"
    },
    {
      "anonymous": false,
      "inputs": [
        {
          "indexed": false,
          "internalType": "address",
          "name": "_buyer",
          "type": "address"
        },
        {
          "indexed": false,
          "internalType": "uint256",
          "name": "amount",
          "type": "uint256"
        },
        {
          "indexed": false,
          "internalType": "enum Escrow.State",
          "name": "status",
          "type": "uint8"
        }
      ],
      "name": "Withdraw",
      "type": "event"
    },
    {
      "inputs": [],
      "name": "buyer",
      "outputs": [
        {
          "internalType": "address payable",
          "name": "",
          "type": "address"
        }
      ],
      "stateMutability": "view",
      "type": "function",
      "constant": true
    },
    {
      "inputs": [],
      "name": "owner",
      "outputs": [
        {
          "internalType": "address payable",
          "name": "",
          "type": "address"
        }
      ],
      "stateMutability": "view",
      "type": "function",
      "constant": true
    },
    {
      "inputs": [],
      "name": "seller",
      "outputs": [
        {
          "internalType": "address payable",
          "name": "",
          "type": "address"
        }
      ],
      "stateMutability": "view",
      "type": "function",
      "constant": true
    },
    {
      "inputs": [
        {
          "internalType": "address payable",
          "name": "_commissionWallet",
          "type": "address"
        },
        {
          "internalType": "uint256",
          "name": "_minimumEscrowAmount",
          "type": "uint256"
        },
        {
          "internalType": "uint256",
          "name": "_commissionRate",
          "type": "uint256"
        },
        {
          "internalType": "address payable",
          "name": "_owner",
          "type": "address"
        }
      ],
      "name": "initializeDeal",
      "outputs": [],
      "stateMutability": "nonpayable",
      "type": "function"
    },
    {
      "inputs": [
        {
          "internalType": "address payable",
          "name": "_seller",
          "type": "address"
        }
      ],
      "name": "escrowParties",
      "outputs": [],
      "stateMutability": "nonpayable",
      "type": "function"
    },
    {
      "inputs": [],
      "name": "deposit",
      "outputs": [],
      "stateMutability": "payable",
      "type": "function",
      "payable": true
    },
    {
      "inputs": [],
      "name": "acceptDeal",
      "outputs": [],
      "stateMutability": "nonpayable",
      "type": "function"
    },
    {
      "inputs": [],
      "name": "releaseFund",
      "outputs": [],
      "stateMutability": "nonpayable",
      "type": "function"
    },
    {
      "inputs": [],
      "name": "withdrawFund",
      "outputs": [],
      "stateMutability": "nonpayable",
      "type": "function"
    },
    {
      "inputs": [
        {
          "internalType": "uint256",
          "name": "_commissionRate",
          "type": "uint256"
        }
      ],
      "name": "changeCommissionRate",
      "outputs": [],
      "stateMutability": "nonpayable",
      "type": "function"
    },
    {
      "inputs": [],
      "name": "postSixMonths",
      "outputs": [],
      "stateMutability": "nonpayable",
      "type": "function"
    },
    {
      "inputs": [],
      "name": "currentStateOfDeal",
      "outputs": [
        {
          "internalType": "enum Escrow.State",
          "name": "",
          "type": "uint8"
        }
      ],
      "stateMutability": "view",
      "type": "function",
      "constant": true
    },
    {
      "inputs": [],
      "name": "commissionRateOfDeal",
      "outputs": [
        {
          "internalType": "uint256",
          "name": "",
          "type": "uint256"
        }
      ],
      "stateMutability": "view",
      "type": "function",
      "constant": true
    }
  ],
  "bytecode": "0x608060405234801561001057600080fd5b50612317806100206000396000f3fe6080604052600436106100c25760003560e01c80637150d8ae1161007f5780639f123ec1116100595780639f123ec114610230578063a2ff553914610247578063d0e30db01461025e578063e07fa3c114610268576100c2565b80637150d8ae146101af57806377181fff146101da5780638da5cb5b14610205576100c2565b806308551a53146100c757806309ceb07c146100f2578063141c94d8146101095780631fa338d214610134578063296ed3941461015d5780636642642a14610186575b600080fd5b3480156100d357600080fd5b506100dc61027f565b6040516100e99190611792565b60405180910390f35b3480156100fe57600080fd5b506101076102a5565b005b34801561011557600080fd5b5061011e610477565b60405161012b9190611824565b60405180910390f35b34801561014057600080fd5b5061015b60048036038101906101569190611870565b61048e565b005b34801561016957600080fd5b50610184600480360381019061017f91906118d3565b61093a565b005b34801561019257600080fd5b506101ad60048036038101906101a8919061193a565b610af3565b005b3480156101bb57600080fd5b506101c4610c6c565b6040516101d19190611792565b60405180910390f35b3480156101e657600080fd5b506101ef610c92565b6040516101fc9190611976565b60405180910390f35b34801561021157600080fd5b5061021a610c9c565b6040516102279190611792565b60405180910390f35b34801561023c57600080fd5b50610245610cc0565b005b34801561025357600080fd5b5061025c610e51565b005b610266611205565b005b34801561027457600080fd5b5061027d6114af565b005b600560009054906101000a900473ffffffffffffffffffffffffffffffffffffffff1681565b62eff100600654426102b791906119c0565b116102f7576040517f08c379a00000000000000000000000000000000000000000000000000000000081526004016102ee90611a77565b60405180910390fd5b3373ffffffffffffffffffffffffffffffffffffffff1660008054906101000a900473ffffffffffffffffffffffffffffffffffffffff1673ffffffffffffffffffffffffffffffffffffffff1614610385576040517f08c379a000000000000000000000000000000000000000000000000000000000815260040161037c90611ae3565b60405180910390fd5b600047905060008054906101000a900473ffffffffffffffffffffffffffffffffffffffff1673ffffffffffffffffffffffffffffffffffffffff166108fc829081150290604051600060405180830381858888f193505050501580156103f0573d6000803e3d6000fd5b5060058060146101000a81548160ff02191690836005811115610416576104156117ad565b5b02179055507f573c1cc6c62a64a066b18c589f86964ec744c955beaee528362a6ef9daa9a94e60008054906101000a900473ffffffffffffffffffffffffffffffffffffffff168260405161046c929190611b62565b60405180910390a150565b6000600560149054906101000a900460ff16905090565b600073ffffffffffffffffffffffffffffffffffffffff1660008054906101000a900473ffffffffffffffffffffffffffffffffffffffff1673ffffffffffffffffffffffffffffffffffffffff160361051d576040517f08c379a000000000000000000000000000000000000000000000000000000000815260040161051490611bd7565b60405180910390fd5b3260008173ffffffffffffffffffffffffffffffffffffffff163b1480156105725750600073ffffffffffffffffffffffffffffffffffffffff168173ffffffffffffffffffffffffffffffffffffffff1614155b6105b1576040517f08c379a00000000000000000000000000000000000000000000000000000000081526004016105a890611c43565b60405180910390fd5b8160008173ffffffffffffffffffffffffffffffffffffffff163b1480156106065750600073ffffffffffffffffffffffffffffffffffffffff168173ffffffffffffffffffffffffffffffffffffffff1614155b610645576040517f08c379a000000000000000000000000000000000000000000000000000000000815260040161063c90611c43565b60405180910390fd5b32838073ffffffffffffffffffffffffffffffffffffffff168273ffffffffffffffffffffffffffffffffffffffff16141580156106d15750600360009054906101000a900473ffffffffffffffffffffffffffffffffffffffff1673ffffffffffffffffffffffffffffffffffffffff168273ffffffffffffffffffffffffffffffffffffffff1614155b801561072b5750600360009054906101000a900473ffffffffffffffffffffffffffffffffffffffff1673ffffffffffffffffffffffffffffffffffffffff168173ffffffffffffffffffffffffffffffffffffffff1614155b61076a576040517f08c379a000000000000000000000000000000000000000000000000000000000815260040161076190611cd5565b60405180910390fd5b3260008054906101000a900473ffffffffffffffffffffffffffffffffffffffff168073ffffffffffffffffffffffffffffffffffffffff168273ffffffffffffffffffffffffffffffffffffffff16141580156108165750600360009054906101000a900473ffffffffffffffffffffffffffffffffffffffff1673ffffffffffffffffffffffffffffffffffffffff168273ffffffffffffffffffffffffffffffffffffffff1614155b80156108705750600360009054906101000a900473ffffffffffffffffffffffffffffffffffffffff1673ffffffffffffffffffffffffffffffffffffffff168173ffffffffffffffffffffffffffffffffffffffff1614155b6108af576040517f08c379a00000000000000000000000000000000000000000000000000000000081526004016108a690611cd5565b60405180910390fd5b32600460006101000a81548173ffffffffffffffffffffffffffffffffffffffff021916908373ffffffffffffffffffffffffffffffffffffffff16021790555086600560006101000a81548173ffffffffffffffffffffffffffffffffffffffff021916908373ffffffffffffffffffffffffffffffffffffffff16021790555050505050505050565b600073ffffffffffffffffffffffffffffffffffffffff1660008054906101000a900473ffffffffffffffffffffffffffffffffffffffff1673ffffffffffffffffffffffffffffffffffffffff16146109c9576040517f08c379a00000000000000000000000000000000000000000000000000000000081526004016109c090611d41565b60405180910390fd5b8360008173ffffffffffffffffffffffffffffffffffffffff163b148015610a1e5750600073ffffffffffffffffffffffffffffffffffffffff168173ffffffffffffffffffffffffffffffffffffffff1614155b610a5d576040517f08c379a0000000000000000000000000000000000000000000000000000000008152600401610a5490611c43565b60405180910390fd5b84600360006101000a81548173ffffffffffffffffffffffffffffffffffffffff021916908373ffffffffffffffffffffffffffffffffffffffff1602179055508360018190555082600281905550816000806101000a81548173ffffffffffffffffffffffffffffffffffffffff021916908373ffffffffffffffffffffffffffffffffffffffff1602179055505050505050565b600073ffffffffffffffffffffffffffffffffffffffff1660008054906101000a900473ffffffffffffffffffffffffffffffffffffffff1673ffffffffffffffffffffffffffffffffffffffff1603610b82576040517f08c379a0000000000000000000000000000000000000000000000000000000008152600401610b7990611bd7565b60405180910390fd5b3373ffffffffffffffffffffffffffffffffffffffff1660008054906101000a900473ffffffffffffffffffffffffffffffffffffffff1673ffffffffffffffffffffffffffffffffffffffff1614610c10576040517f08c379a0000000000000000000000000000000000000000000000000000000008152600401610c0790611ae3565b60405180910390fd5b8060648111158015610c225750600081115b610c61576040517f08c379a0000000000000000000000000000000000000000000000000000000008152600401610c5890611dad565b60405180910390fd5b816002819055505050565b600460009054906101000a900473ffffffffffffffffffffffffffffffffffffffff1681565b6000600254905090565b60008054906101000a900473ffffffffffffffffffffffffffffffffffffffff1681565b60016005811115610cd457610cd36117ad565b5b600560149054906101000a900460ff166005811115610cf657610cf56117ad565b5b14610d36576040517f08c379a0000000000000000000000000000000000000000000000000000000008152600401610d2d90611e19565b60405180910390fd5b600560009054906101000a900473ffffffffffffffffffffffffffffffffffffffff1673ffffffffffffffffffffffffffffffffffffffff163373ffffffffffffffffffffffffffffffffffffffff1614610dc6576040517f08c379a0000000000000000000000000000000000000000000000000000000008152600401610dbd90611e85565b60405180910390fd5b6002600560146101000a81548160ff02191690836005811115610dec57610deb6117ad565b5b02179055507f256753117785cccff5787996ea7646b712ff88358432c84fdf3f5a8e75f8e1b7600460009054906101000a900473ffffffffffffffffffffffffffffffffffffffff16336002604051610e4793929190611ec6565b60405180910390a1565b60026005811115610e6557610e646117ad565b5b600560149054906101000a900460ff166005811115610e8757610e866117ad565b5b14610ec7576040517f08c379a0000000000000000000000000000000000000000000000000000000008152600401610ebe90611f49565b60405180910390fd5b600460009054906101000a900473ffffffffffffffffffffffffffffffffffffffff1673ffffffffffffffffffffffffffffffffffffffff163373ffffffffffffffffffffffffffffffffffffffff161480610f705750600560009054906101000a900473ffffffffffffffffffffffffffffffffffffffff1673ffffffffffffffffffffffffffffffffffffffff163373ffffffffffffffffffffffffffffffffffffffff16145b610faf576040517f08c379a0000000000000000000000000000000000000000000000000000000008152600401610fa690611fb5565b60405180910390fd5b600080610fba611703565b91509150600460009054906101000a900473ffffffffffffffffffffffffffffffffffffffff1673ffffffffffffffffffffffffffffffffffffffff163373ffffffffffffffffffffffffffffffffffffffff161461108157600460009054906101000a900473ffffffffffffffffffffffffffffffffffffffff1673ffffffffffffffffffffffffffffffffffffffff166108fc839081150290604051600060405180830381858888f1935050505015801561107b573d6000803e3d6000fd5b506110eb565b600560009054906101000a900473ffffffffffffffffffffffffffffffffffffffff1673ffffffffffffffffffffffffffffffffffffffff166108fc839081150290604051600060405180830381858888f193505050501580156110e9573d6000803e3d6000fd5b505b600360009054906101000a900473ffffffffffffffffffffffffffffffffffffffff1673ffffffffffffffffffffffffffffffffffffffff166108fc829081150290604051600060405180830381858888f19350505050158015611153573d6000803e3d6000fd5b506003600560146101000a81548160ff0219169083600581111561117a576111796117ad565b5b02179055507f52a425e2be1df634499a25dae0dc59f7121b8a26b7107ee4ec864e7908a1c19d600460009054906101000a900473ffffffffffffffffffffffffffffffffffffffff16600560009054906101000a900473ffffffffffffffffffffffffffffffffffffffff166003856040516111f99493929190611fd5565b60405180910390a15050565b60006005811115611219576112186117ad565b5b600560149054906101000a900460ff16600581111561123b5761123a6117ad565b5b1461127b576040517f08c379a000000000000000000000000000000000000000000000000000000000815260040161127290612066565b60405180910390fd5b600073ffffffffffffffffffffffffffffffffffffffff16600460009054906101000a900473ffffffffffffffffffffffffffffffffffffffff1673ffffffffffffffffffffffffffffffffffffffff16141580156113295750600073ffffffffffffffffffffffffffffffffffffffff16600560009054906101000a900473ffffffffffffffffffffffffffffffffffffffff1673ffffffffffffffffffffffffffffffffffffffff1614155b611368576040517f08c379a000000000000000000000000000000000000000000000000000000000815260040161135f906120d2565b60405180910390fd5b32600460009054906101000a900473ffffffffffffffffffffffffffffffffffffffff1673ffffffffffffffffffffffffffffffffffffffff168173ffffffffffffffffffffffffffffffffffffffff16146113f9576040517f08c379a00000000000000000000000000000000000000000000000000000000081526004016113f09061213e565b60405180910390fd5b60015434101561143e576040517f08c379a0000000000000000000000000000000000000000000000000000000008152600401611435906121d0565b60405180910390fd5b6001600560146101000a81548160ff02191690836005811115611464576114636117ad565b5b02179055507fe4fcf2b6cb277fd548df0434b5f8e8122d094df9b61978815ac64ead0d4500ff3234600160405161149d939291906121f0565b60405180910390a14260068190555050565b600160058111156114c3576114c26117ad565b5b600560149054906101000a900460ff1660058111156114e5576114e46117ad565b5b14611525576040517f08c379a000000000000000000000000000000000000000000000000000000000815260040161151c90611e19565b60405180910390fd5b33600460009054906101000a900473ffffffffffffffffffffffffffffffffffffffff1673ffffffffffffffffffffffffffffffffffffffff168173ffffffffffffffffffffffffffffffffffffffff16146115b6576040517f08c379a00000000000000000000000000000000000000000000000000000000081526004016115ad9061213e565b60405180910390fd5b6000806115c1611703565b91509150600460009054906101000a900473ffffffffffffffffffffffffffffffffffffffff1673ffffffffffffffffffffffffffffffffffffffff166108fc839081150290604051600060405180830381858888f1935050505015801561162d573d6000803e3d6000fd5b50600360009054906101000a900473ffffffffffffffffffffffffffffffffffffffff1673ffffffffffffffffffffffffffffffffffffffff166108fc829081150290604051600060405180830381858888f19350505050158015611696573d6000803e3d6000fd5b506004600560146101000a81548160ff021916908360058111156116bd576116bc6117ad565b5b02179055507f45d9b36bb1871baeb32899cbd875ecf2aa49cfb142c4ca5fb99837aa770dd337338360046040516116f6939291906121f0565b60405180910390a1505050565b6000806000479050600060646002548361171d9190612227565b61172791906122b0565b8261173291906119c0565b90506000818361174291906119c0565b90508181945094505050509091565b600073ffffffffffffffffffffffffffffffffffffffff82169050919050565b600061177c82611751565b9050919050565b61178c81611771565b82525050565b60006020820190506117a76000830184611783565b92915050565b7f4e487b7100000000000000000000000000000000000000000000000000000000600052602160045260246000fd5b600681106117ed576117ec6117ad565b5b50565b60008190506117fe826117dc565b919050565b600061180e826117f0565b9050919050565b61181e81611803565b82525050565b60006020820190506118396000830184611815565b92915050565b600080fd5b61184d81611771565b811461185857600080fd5b50565b60008135905061186a81611844565b92915050565b6000602082840312156118865761188561183f565b5b60006118948482850161185b565b91505092915050565b6000819050919050565b6118b08161189d565b81146118bb57600080fd5b50565b6000813590506118cd816118a7565b92915050565b600080600080608085870312156118ed576118ec61183f565b5b60006118fb8782880161185b565b945050602061190c878288016118be565b935050604061191d878288016118be565b925050606061192e8782880161185b565b91505092959194509250565b6000602082840312156119505761194f61183f565b5b600061195e848285016118be565b91505092915050565b6119708161189d565b82525050565b600060208201905061198b6000830184611967565b92915050565b7f4e487b7100000000000000000000000000000000000000000000000000000000600052601160045260246000fd5b60006119cb8261189d565b91506119d68361189d565b92508282039050818111156119ee576119ed611991565b5b92915050565b600082825260208201905092915050565b7f46756e64732063616e2062652077697468647261776e206f6e6c79206166746560008201527f72206120706572696f64206f662036206d6f6e74687321000000000000000000602082015250565b6000611a616037836119f4565b9150611a6c82611a05565b604082019050919050565b60006020820190508181036000830152611a9081611a54565b9050919050565b7f4f6e6c792061636365737369626c65206279206f776e65722100000000000000600082015250565b6000611acd6019836119f4565b9150611ad882611a97565b602082019050919050565b60006020820190508181036000830152611afc81611ac0565b9050919050565b6000819050919050565b6000611b28611b23611b1e84611751565b611b03565b611751565b9050919050565b6000611b3a82611b0d565b9050919050565b6000611b4c82611b2f565b9050919050565b611b5c81611b41565b82525050565b6000604082019050611b776000830185611b53565b611b846020830184611967565b9392505050565b7f4465616c206e6f7420696e697469616c697a6564207965742100000000000000600082015250565b6000611bc16019836119f4565b9150611bcc82611b8b565b602082019050919050565b60006020820190508181036000830152611bf081611bb4565b9050919050565b7f496e76616c696420616464726573732100000000000000000000000000000000600082015250565b6000611c2d6010836119f4565b9150611c3882611bf7565b602082019050919050565b60006020820190508181036000830152611c5c81611c20565b9050919050565b7f42757965722c2073656c6c6572202620636f6d6d697373696f6e2077616c6c6560008201527f74732c206d75737420616c6c20626520646966666572656e7421000000000000602082015250565b6000611cbf603a836119f4565b9150611cca82611c63565b604082019050919050565b60006020820190508181036000830152611cee81611cb2565b9050919050565b7f43616e277420696e697469616c697a652061206465616c207477696365210000600082015250565b6000611d2b601e836119f4565b9150611d3682611cf5565b602082019050919050565b60006020820190508181036000830152611d5a81611d1e565b9050919050565b7f496e76616c696420636f6d6d697373696f6e2072617465210000000000000000600082015250565b6000611d976018836119f4565b9150611da282611d61565b602082019050919050565b60006020820190508181036000830152611dc681611d8a565b9050919050565b7f4465616c206e6f742066756e6465642079657421000000000000000000000000600082015250565b6000611e036014836119f4565b9150611e0e82611dcd565b602082019050919050565b60006020820190508181036000830152611e3281611df6565b9050919050565b7f4f6e6c792061636365737369626c652062792073656c6c657221000000000000600082015250565b6000611e6f601a836119f4565b9150611e7a82611e39565b602082019050919050565b60006020820190508181036000830152611e9e81611e62565b9050919050565b6000611eb082611751565b9050919050565b611ec081611ea5565b82525050565b6000606082019050611edb6000830186611b53565b611ee86020830185611eb7565b611ef56040830184611815565b949350505050565b7f4465616c206e6f74206163636570746564207965742100000000000000000000600082015250565b6000611f336016836119f4565b9150611f3e82611efd565b602082019050919050565b60006020820190508181036000830152611f6281611f26565b9050919050565b7f496e76616c6964206d6573736167652073656e64657221000000000000000000600082015250565b6000611f9f6017836119f4565b9150611faa82611f69565b602082019050919050565b60006020820190508181036000830152611fce81611f92565b9050919050565b6000608082019050611fea6000830187611b53565b611ff76020830186611b53565b6120046040830185611815565b6120116060830184611967565b95945050505050565b7f53746174652773206e6f7420494e495421000000000000000000000000000000600082015250565b60006120506011836119f4565b915061205b8261201a565b602082019050919050565b6000602082019050818103600083015261207f81612043565b9050919050565b7f457363726f772070617274696573206e6f742073657420796574210000000000600082015250565b60006120bc601b836119f4565b91506120c782612086565b602082019050919050565b600060208201905081810360008301526120eb816120af565b9050919050565b7f4f6e6c792061636365737369626c652062792062757965722100000000000000600082015250565b60006121286019836119f4565b9150612133826120f2565b602082019050919050565b600060208201905081810360008301526121578161211b565b9050919050565b7f56616c7565206c657373207468616e206d696e696d756d20616d6f756e74207260008201527f6571756972656421000000000000000000000000000000000000000000000000602082015250565b60006121ba6028836119f4565b91506121c58261215e565b604082019050919050565b600060208201905081810360008301526121e9816121ad565b9050919050565b60006060820190506122056000830186611eb7565b6122126020830185611967565b61221f6040830184611815565b949350505050565b60006122328261189d565b915061223d8361189d565b9250817fffffffffffffffffffffffffffffffffffffffffffffffffffffffffffffffff048311821515161561227657612275611991565b5b828202905092915050565b7f4e487b7100000000000000000000000000000000000000000000000000000000600052601260045260246000fd5b60006122bb8261189d565b91506122c68361189d565b9250826122d6576122d5612281565b5b82820490509291505056fea26469706673582212203e7c23f8e604769bccab220f17a7d62715e2253ed0080444cc2b7201abd5732664736f6c63430008100033",
  "immutableReferences": {},
  "source": "// SPDX-License-Identifier: MIT\r\npragma solidity >=0.8.0;\r\ncontract Escrow{\r\n    address payable public owner;\r\n    uint256 private minimumEscrowAmount;\r\n    uint256 private commissionRate;\r\n    address payable private commissionWallet;\r\n    enum State {\r\n        INIT,\r\n        FUNDED,\r\n        ACCEPTED,\r\n        RELEASED,\r\n        REFUNDED,\r\n        WITHDRAWED_BY_OWNER\r\n    }\r\n    address payable public buyer;\r\n    address payable public seller;\r\n    State private currentState;\r\n    uint256 private depositTime;\r\n\r\n    event Funded(address buyer, uint256 amount, State status);\r\n    event Accepted(address buyer, address seller, State status);\r\n    event ReleaseFund(\r\n        address buyer,\r\n        address seller,\r\n        State status,\r\n        uint256 amount_released\r\n    );\r\n    event Withdraw(address _buyer, uint256 amount, State status);\r\n    event SixMonths(\r\n        address _destAddr,\r\n        uint256 amount_withdrawn\r\n    );\r\n\r\n    modifier isAddressValid(address addr) {\r\n        require(addr.code.length == 0 && addr != address(0x0), \"Invalid address!\");\r\n        _;\r\n    }\r\n\r\n    modifier buyerOnly(address _buyer) {\r\n        require(_buyer == buyer, \"Only accessible by buyer!\");\r\n        _;\r\n    }\r\n\r\n    modifier sellerOnly() {\r\n        require(msg.sender == seller, \"Only accessible by seller!\");\r\n        _;\r\n    }\r\n\r\n    modifier ownerOnly() {\r\n        require(owner == msg.sender, \"Only accessible by owner!\");\r\n        _;\r\n    }\r\n\r\n    modifier buyerOrSellerOnly() {\r\n        require(msg.sender == buyer || msg.sender == seller, \"Invalid message sender!\");\r\n        _;\r\n    }\r\n\r\n    modifier initByOwner() {\r\n        require(owner != address(0x0), \"Deal not initialized yet!\");\r\n        _;\r\n    }\r\n\r\n    modifier initCheck() {\r\n        require(owner == address(0x0), \"Can't initialize a deal twice!\");\r\n        _;\r\n    }\r\n\r\n    modifier stateInit(){\r\n        require(currentState == State.INIT, \"State's not INIT!\");\r\n        _;\r\n    }\r\n\r\n    modifier stateFunded() {\r\n        require(currentState == State.FUNDED, \"Deal not funded yet!\");\r\n        _;\r\n    }\r\n\r\n    modifier stateAccepted() {\r\n        require(currentState == State.ACCEPTED, \"Deal not accepted yet!\");\r\n        _;\r\n    }\r\n\r\n    modifier minimumAmount() {\r\n        require(msg.value >= minimumEscrowAmount, \"Value less than minimum amount required!\");\r\n        _;\r\n    } \r\n\r\n    modifier partiesDefined() {\r\n        require(buyer != address(0x0) && seller != address(0x0), \"Escrow parties not set yet!\");\r\n        _;\r\n    }\r\n\r\n    modifier dealCommissionRate(uint256 comm_rate){\r\n         require(comm_rate <= 100 && comm_rate > 0, \"Invalid commission rate!\");\r\n        _;\r\n    }\r\n\r\n    modifier differentWalletAddresses(address _buyer, address _seller){\r\n        require(_buyer != _seller && _buyer != commissionWallet && _seller != commissionWallet,\r\n            \"Buyer, seller & commission wallets, must all be different!\"\r\n        );\r\n        _;\r\n    }\r\n\r\n    modifier minimumTimePeriod(){\r\n        require(block.timestamp - depositTime > 26 weeks, \"Funds can be withdrawn only after a period of 6 months!\");\r\n        _;\r\n    }\r\n\r\n    function initializeDeal(\r\n        address payable _commissionWallet,\r\n        uint256 _minimumEscrowAmount,\r\n        uint256 _commissionRate,\r\n        address payable _owner\r\n    ) \r\n        public \r\n        initCheck\r\n        isAddressValid (_commissionWallet)\r\n    {\r\n        commissionWallet = _commissionWallet;\r\n        minimumEscrowAmount = _minimumEscrowAmount;\r\n        commissionRate = _commissionRate;\r\n        owner = _owner;\r\n    }\r\n\r\n    function escrowParties( \r\n        address payable _seller\r\n    )\r\n        public\r\n        initByOwner\r\n        isAddressValid (tx.origin)\r\n        isAddressValid (_seller)\r\n        differentWalletAddresses(tx.origin, _seller)\r\n        differentWalletAddresses(tx.origin, owner)\r\n    {\r\n        buyer = payable(tx.origin);\r\n        seller = _seller;\r\n    }\r\n\r\n    function deposit() \r\n        public \r\n        payable \r\n        stateInit\r\n        partiesDefined\r\n        buyerOnly(tx.origin)\r\n        minimumAmount \r\n    {\r\n        currentState = State.FUNDED;\r\n        emit Funded(tx.origin, msg.value, State.FUNDED);\r\n        depositTime = block.timestamp;\r\n    }\r\n\r\n    function acceptDeal() \r\n        public\r\n        stateFunded\r\n        sellerOnly  \r\n    {\r\n        currentState = State.ACCEPTED;\r\n        emit Accepted(buyer, msg.sender, State.ACCEPTED);\r\n    }\r\n\r\n    function releaseFund() \r\n        public\r\n        stateAccepted\r\n        buyerOrSellerOnly \r\n    {\r\n        (uint256 amountAfterCommission, uint256 commissionAmount) = calculateAmountToTransfer();\r\n        msg.sender == buyer ? seller.transfer(amountAfterCommission) : buyer.transfer(amountAfterCommission);\r\n        commissionWallet.transfer(commissionAmount);\r\n        currentState = State.RELEASED;\r\n        emit ReleaseFund(\r\n            buyer,\r\n            seller,\r\n            State.RELEASED,\r\n            amountAfterCommission\r\n        );\r\n    }\r\n\r\n    function withdrawFund() \r\n        public \r\n        stateFunded \r\n        buyerOnly(msg.sender)\r\n    {\r\n        (uint256 amountAfterCommission, uint256 commissionAmount) = calculateAmountToTransfer();\r\n        buyer.transfer(amountAfterCommission);\r\n        commissionWallet.transfer(commissionAmount);\r\n        currentState = State.REFUNDED;\r\n        emit Withdraw(msg.sender, amountAfterCommission, State.REFUNDED);\r\n    }\r\n\r\n    function calculateAmountToTransfer() internal view returns (uint256, uint256){\r\n        uint256 dealAmount = address(this).balance;\r\n        uint256 amountAfterCommission = dealAmount - ((dealAmount * commissionRate) / 100);\r\n        uint256 commissionAmount = dealAmount - amountAfterCommission;\r\n        return (amountAfterCommission, commissionAmount); \r\n    }\r\n\r\n    function changeCommissionRate(uint256 _commissionRate)\r\n        public\r\n        initByOwner\r\n        ownerOnly\r\n        dealCommissionRate(_commissionRate)\r\n    {\r\n        commissionRate = _commissionRate;\r\n    }\r\n\r\n    function postSixMonths()\r\n        public\r\n        minimumTimePeriod\r\n        ownerOnly\r\n    {\r\n        uint256 contractBalance = address(this).balance;\r\n        owner.transfer(contractBalance);\r\n        currentState = State.WITHDRAWED_BY_OWNER;\r\n        emit SixMonths(owner, contractBalance);\r\n    }\r\n\r\n    function currentStateOfDeal()\r\n        public \r\n        view \r\n        returns (State) \r\n    {\r\n        return currentState;\r\n    }\r\n\r\n    function commissionRateOfDeal() \r\n        public \r\n        view \r\n        returns (uint256) \r\n    {\r\n        return commissionRate;\r\n    }\r\n}\r\n",
  "sourcePath": "C:\\Users\\Keval Sayar\\Desktop\\GV\\escrowSC\\contracts\\escrow.sol",
  "compiler": {
    "name": "solc",
    "version": "0.8.16+commit.07a7930e.Emscripten.clang"
  },
  "schemaVersion": "3.4.10",
  "updatedAt": "2022-11-03T06:28:59.267Z",
  "networkType": "ethereum",
  "devdoc": {
    "kind": "dev",
    "methods": {},
    "version": 1
  },
  "userdoc": {
    "kind": "user",
    "methods": {},
    "version": 1
  }
}