{
  "contractName": "EscrowFactory",
  "abi": [
    {
      "anonymous": false,
      "inputs": [
        {
          "indexed": false,
          "internalType": "address",
          "name": "NewProxyAddress",
          "type": "address"
        },
        {
          "indexed": false,
          "internalType": "string",
          "name": "dealId",
          "type": "string"
        }
      ],
      "name": "NewProxyAddress",
      "type": "event"
    },
    {
      "anonymous": false,
      "inputs": [
        {
          "indexed": false,
          "internalType": "address",
          "name": "previousOwner",
          "type": "address"
        },
        {
          "indexed": false,
          "internalType": "address",
          "name": "newOwner",
          "type": "address"
        }
      ],
      "name": "OwnershipTransferred",
      "type": "event"
    },
    {
      "inputs": [
        {
          "internalType": "address",
          "name": "_vLogic",
          "type": "address"
        }
      ],
      "name": "initialize",
      "outputs": [],
      "stateMutability": "nonpayable",
      "type": "function"
    },
    {
      "inputs": [
        {
          "internalType": "string",
          "name": "_userId",
          "type": "string"
        },
        {
          "internalType": "string",
          "name": "_dealId",
          "type": "string"
        },
        {
          "internalType": "address payable",
          "name": "_commissionWallet",
          "type": "address"
        },
        {
          "internalType": "uint256",
          "name": "_minimumEscrowAmount",
          "type": "uint256"
        },
        {
          "internalType": "uint256",
          "name": "_commissionRate",
          "type": "uint256"
        },
        {
          "internalType": "address payable",
          "name": "_seller",
          "type": "address"
        }
      ],
      "name": "createEscrowProxy",
      "outputs": [],
      "stateMutability": "payable",
      "type": "function",
      "payable": true
    },
    {
      "inputs": [
        {
          "internalType": "address payable",
          "name": "_newFactoryOwner",
          "type": "address"
        }
      ],
      "name": "transferFactoryOwnership",
      "outputs": [],
      "stateMutability": "nonpayable",
      "type": "function"
    },
    {
      "inputs": [],
      "name": "getFactoryOwner",
      "outputs": [
        {
          "internalType": "address",
          "name": "",
          "type": "address"
        }
      ],
      "stateMutability": "view",
      "type": "function",
      "constant": true
    },
    {
      "inputs": [
        {
          "internalType": "string",
          "name": "_userId",
          "type": "string"
        },
        {
          "internalType": "string",
          "name": "_dealId",
          "type": "string"
        }
      ],
      "name": "escrowProxyAddress",
      "outputs": [
        {
          "internalType": "address",
          "name": "",
          "type": "address"
        }
      ],
      "stateMutability": "view",
      "type": "function",
      "constant": true
    },
    {
      "inputs": [],
      "name": "escrowImplAddress",
      "outputs": [
        {
          "internalType": "address",
          "name": "",
          "type": "address"
        }
      ],
      "stateMutability": "view",
      "type": "function",
      "constant": true
    },
    {
      "inputs": [],
      "name": "escrowBeaconAddress",
      "outputs": [
        {
          "internalType": "address",
          "name": "",
          "type": "address"
        }
      ],
      "stateMutability": "view",
      "type": "function",
      "constant": true
    }
  ],
  "bytecode": "0x608060405234801561001057600080fd5b506136b0806100206000396000f3fe6080604052600436106200007a5760003560e01c80639c5c5ce711620000555780639c5c5ce71462000113578063c4d66de81462000141578063d4b211c9146200016f578063e09bda6b146200019f576200007a565b8063361507e4146200007f5780636f18a1b914620000c35780637aca3db814620000f3575b600080fd5b3480156200008c57600080fd5b50620000ab6004803603810190620000a5919062000af5565b620001cf565b604051620000ba919062000bbf565b60405180910390f35b348015620000d057600080fd5b50620000db62000238565b604051620000ea919062000bbf565b60405180910390f35b6200011160048036038101906200010b919062000c5c565b620002d3565b005b3480156200012057600080fd5b506200013f600480360381019062000139919062000d36565b620004f4565b005b3480156200014e57600080fd5b506200016d600480360381019062000167919062000d99565b620006bc565b005b3480156200017c57600080fd5b50620001876200088e565b60405162000196919062000bbf565b60405180910390f35b348015620001ac57600080fd5b50620001b7620008b8565b604051620001c6919062000bbf565b60405180910390f35b6000600183604051620001e3919062000e44565b90815260200160405180910390208260405162000201919062000e44565b908152602001604051809103902060009054906101000a900473ffffffffffffffffffffffffffffffffffffffff16905092915050565b6000600260009054906101000a900473ffffffffffffffffffffffffffffffffffffffff1673ffffffffffffffffffffffffffffffffffffffff16635c60da1b6040518163ffffffff1660e01b8152600401602060405180830381865afa158015620002a8573d6000803e3d6000fd5b505050506040513d601f19601f82011682018060405250810190620002ce919062000e74565b905090565b6000600260009054906101000a900473ffffffffffffffffffffffffffffffffffffffff1663296ed39460e01b86868660008054906101000a900473ffffffffffffffffffffffffffffffffffffffff1660405160240162000339949392919062000ec8565b604051602081830303815290604052907bffffffffffffffffffffffffffffffffffffffffffffffffffffffff19166020820180517bffffffffffffffffffffffffffffffffffffffffffffffffffffffff8381831617835250505050604051620003a49062000963565b620003b192919062000f72565b604051809103906000f080158015620003ce573d6000803e3d6000fd5b5090507f996ca2c7cd4aedd29c17e0ad4800665caee14e635d27833a6bd295c868c797cf81876040516200040492919062000ff8565b60405180910390a162000419878783620008e1565b8073ffffffffffffffffffffffffffffffffffffffff16631fa338d2836040518263ffffffff1660e01b81526004016200045491906200102c565b600060405180830381600087803b1580156200046f57600080fd5b505af115801562000484573d6000803e3d6000fd5b505050508073ffffffffffffffffffffffffffffffffffffffff1663d0e30db0346040518263ffffffff1660e01b81526004016000604051808303818588803b158015620004d157600080fd5b505af1158015620004e6573d6000803e3d6000fd5b505050505050505050505050565b60008054906101000a900473ffffffffffffffffffffffffffffffffffffffff1673ffffffffffffffffffffffffffffffffffffffff163373ffffffffffffffffffffffffffffffffffffffff161462000585576040517f08c379a00000000000000000000000000000000000000000000000000000000081526004016200057c9062001099565b60405180910390fd5b8060008173ffffffffffffffffffffffffffffffffffffffff163b148015620005db5750600073ffffffffffffffffffffffffffffffffffffffff168173ffffffffffffffffffffffffffffffffffffffff1614155b6200061d576040517f08c379a000000000000000000000000000000000000000000000000000000000815260040162000614906200110b565b60405180910390fd5b816000806101000a81548173ffffffffffffffffffffffffffffffffffffffff021916908373ffffffffffffffffffffffffffffffffffffffff1602179055507f8be0079c531659141344cd1fd0a4f28419497f9722a3daafe3b4186f6b6457e060008054906101000a900473ffffffffffffffffffffffffffffffffffffffff1683604051620006b092919062001198565b60405180910390a15050565b600073ffffffffffffffffffffffffffffffffffffffff1660008054906101000a900473ffffffffffffffffffffffffffffffffffffffff1673ffffffffffffffffffffffffffffffffffffffff16146200074e576040517f08c379a000000000000000000000000000000000000000000000000000000000815260040162000745906200123b565b60405180910390fd5b336000806101000a81548173ffffffffffffffffffffffffffffffffffffffff021916908373ffffffffffffffffffffffffffffffffffffffff1602179055506040516200079c9062000971565b604051809103906000f080158015620007b9573d6000803e3d6000fd5b50600260006101000a81548173ffffffffffffffffffffffffffffffffffffffff021916908373ffffffffffffffffffffffffffffffffffffffff160217905550600260009054906101000a900473ffffffffffffffffffffffffffffffffffffffff1673ffffffffffffffffffffffffffffffffffffffff1663a33920af826040518263ffffffff1660e01b815260040162000857919062000bbf565b600060405180830381600087803b1580156200087257600080fd5b505af115801562000887573d6000803e3d6000fd5b5050505050565b6000600260009054906101000a900473ffffffffffffffffffffffffffffffffffffffff16905090565b60008060009054906101000a900473ffffffffffffffffffffffffffffffffffffffff16905090565b80600184604051620008f4919062000e44565b90815260200160405180910390208360405162000912919062000e44565b908152602001604051809103902060006101000a81548173ffffffffffffffffffffffffffffffffffffffff021916908373ffffffffffffffffffffffffffffffffffffffff160217905550505050565b610f54806200125e83390190565b6114c980620021b283390190565b6000604051905090565b600080fd5b600080fd5b600080fd5b600080fd5b6000601f19601f8301169050919050565b7f4e487b7100000000000000000000000000000000000000000000000000000000600052604160045260246000fd5b620009e8826200099d565b810181811067ffffffffffffffff8211171562000a0a5762000a09620009ae565b5b80604052505050565b600062000a1f6200097f565b905062000a2d8282620009dd565b919050565b600067ffffffffffffffff82111562000a505762000a4f620009ae565b5b62000a5b826200099d565b9050602081019050919050565b82818337600083830152505050565b600062000a8e62000a888462000a32565b62000a13565b90508281526020810184848401111562000aad5762000aac62000998565b5b62000aba84828562000a68565b509392505050565b600082601f83011262000ada5762000ad962000993565b5b813562000aec84826020860162000a77565b91505092915050565b6000806040838503121562000b0f5762000b0e62000989565b5b600083013567ffffffffffffffff81111562000b305762000b2f6200098e565b5b62000b3e8582860162000ac2565b925050602083013567ffffffffffffffff81111562000b625762000b616200098e565b5b62000b708582860162000ac2565b9150509250929050565b600073ffffffffffffffffffffffffffffffffffffffff82169050919050565b600062000ba78262000b7a565b9050919050565b62000bb98162000b9a565b82525050565b600060208201905062000bd6600083018462000bae565b92915050565b600062000be98262000b7a565b9050919050565b62000bfb8162000bdc565b811462000c0757600080fd5b50565b60008135905062000c1b8162000bf0565b92915050565b6000819050919050565b62000c368162000c21565b811462000c4257600080fd5b50565b60008135905062000c568162000c2b565b92915050565b60008060008060008060c0878903121562000c7c5762000c7b62000989565b5b600087013567ffffffffffffffff81111562000c9d5762000c9c6200098e565b5b62000cab89828a0162000ac2565b965050602087013567ffffffffffffffff81111562000ccf5762000cce6200098e565b5b62000cdd89828a0162000ac2565b955050604062000cf089828a0162000c0a565b945050606062000d0389828a0162000c45565b935050608062000d1689828a0162000c45565b92505060a062000d2989828a0162000c0a565b9150509295509295509295565b60006020828403121562000d4f5762000d4e62000989565b5b600062000d5f8482850162000c0a565b91505092915050565b62000d738162000b9a565b811462000d7f57600080fd5b50565b60008135905062000d938162000d68565b92915050565b60006020828403121562000db25762000db162000989565b5b600062000dc28482850162000d82565b91505092915050565b600081519050919050565b600081905092915050565b60005b8381101562000e0157808201518184015260208101905062000de4565b60008484015250505050565b600062000e1a8262000dcb565b62000e26818562000dd6565b935062000e3881856020860162000de1565b80840191505092915050565b600062000e52828462000e0d565b915081905092915050565b60008151905062000e6e8162000d68565b92915050565b60006020828403121562000e8d5762000e8c62000989565b5b600062000e9d8482850162000e5d565b91505092915050565b62000eb18162000bdc565b82525050565b62000ec28162000c21565b82525050565b600060808201905062000edf600083018762000ea6565b62000eee602083018662000eb7565b62000efd604083018562000eb7565b62000f0c606083018462000ea6565b95945050505050565b600081519050919050565b600082825260208201905092915050565b600062000f3e8262000f15565b62000f4a818562000f20565b935062000f5c81856020860162000de1565b62000f67816200099d565b840191505092915050565b600060408201905062000f89600083018562000bae565b818103602083015262000f9d818462000f31565b90509392505050565b600082825260208201905092915050565b600062000fc48262000dcb565b62000fd0818562000fa6565b935062000fe281856020860162000de1565b62000fed816200099d565b840191505092915050565b60006040820190506200100f600083018562000bae565b818103602083015262001023818462000fb7565b90509392505050565b600060208201905062001043600083018462000ea6565b92915050565b7f43616c6c65722773206e6f7420746865206f776e657221000000000000000000600082015250565b60006200108160178362000fa6565b91506200108e8262001049565b602082019050919050565b60006020820190508181036000830152620010b48162001072565b9050919050565b7f4e6577206f776e657227732061207a65726f2061646472657373210000000000600082015250565b6000620010f3601b8362000fa6565b91506200110082620010bb565b602082019050919050565b600060208201905081810360008301526200112681620010e4565b9050919050565b6000819050919050565b600062001158620011526200114c8462000b7a565b6200112d565b62000b7a565b9050919050565b60006200116c8262001137565b9050919050565b600062001180826200115f565b9050919050565b620011928162001173565b82525050565b6000604082019050620011af600083018562001187565b620011be602083018462001187565b9392505050565b7f436f6e747261637427732070726576696f75736c7920696e697469616c69736560008201527f6421000000000000000000000000000000000000000000000000000000000000602082015250565b60006200122360228362000fa6565b91506200123082620011c5565b604082019050919050565b60006020820190508181036000830152620012568162001214565b905091905056fe608060405260405162000f5438038062000f54833981810160405281019062000029919062000686565b6200003d828260006200004560201b60201c565b5050620009cd565b62000056836200013c60201b60201c565b8273ffffffffffffffffffffffffffffffffffffffff167f1cf3b03a6cf19fa2baba4df148e9dcabedea7f8a5c07840e207e5c089be95d3e60405160405180910390a2600082511180620000a75750805b156200013757620001358373ffffffffffffffffffffffffffffffffffffffff16635c60da1b6040518163ffffffff1660e01b8152600401602060405180830381865afa158015620000fd573d6000803e3d6000fd5b505050506040513d601f19601f82011682018060405250810190620001239190620006ec565b83620002db60201b620000371760201c565b505b505050565b62000152816200031160201b620000641760201c565b62000194576040517f08c379a00000000000000000000000000000000000000000000000000000000081526004016200018b90620007a5565b60405180910390fd5b6200021b8173ffffffffffffffffffffffffffffffffffffffff16635c60da1b6040518163ffffffff1660e01b8152600401602060405180830381865afa158015620001e4573d6000803e3d6000fd5b505050506040513d601f19601f820116820180604052508101906200020a9190620006ec565b6200031160201b620000641760201c565b6200025d576040517f08c379a000000000000000000000000000000000000000000000000000000000815260040162000254906200083d565b60405180910390fd5b80620002977fa3f0ad74e5423aebfd80d3ef4346578335a9a72aeaee59ff6cb3582b35133d5060001b6200033460201b620000871760201c565b60000160006101000a81548173ffffffffffffffffffffffffffffffffffffffff021916908373ffffffffffffffffffffffffffffffffffffffff16021790555050565b606062000309838360405180606001604052806027815260200162000f2d602791396200033e60201b60201c565b905092915050565b6000808273ffffffffffffffffffffffffffffffffffffffff163b119050919050565b6000819050919050565b606062000351846200031160201b60201c565b62000393576040517f08c379a00000000000000000000000000000000000000000000000000000000081526004016200038a90620008d5565b60405180910390fd5b6000808573ffffffffffffffffffffffffffffffffffffffff1685604051620003bd919062000944565b600060405180830381855af49150503d8060008114620003fa576040519150601f19603f3d011682016040523d82523d6000602084013e620003ff565b606091505b5091509150620004178282866200042260201b60201c565b925050509392505050565b60608315620004345782905062000487565b600083511115620004485782518084602001fd5b816040517f08c379a00000000000000000000000000000000000000000000000000000000081526004016200047e9190620009a9565b60405180910390fd5b9392505050565b6000604051905090565b600080fd5b600080fd5b600073ffffffffffffffffffffffffffffffffffffffff82169050919050565b6000620004cf82620004a2565b9050919050565b620004e181620004c2565b8114620004ed57600080fd5b50565b6000815190506200050181620004d6565b92915050565b600080fd5b600080fd5b6000601f19601f8301169050919050565b7f4e487b7100000000000000000000000000000000000000000000000000000000600052604160045260246000fd5b6200055c8262000511565b810181811067ffffffffffffffff821117156200057e576200057d62000522565b5b80604052505050565b6000620005936200048e565b9050620005a1828262000551565b919050565b600067ffffffffffffffff821115620005c457620005c362000522565b5b620005cf8262000511565b9050602081019050919050565b60005b83811015620005fc578082015181840152602081019050620005df565b60008484015250505050565b60006200061f6200061984620005a6565b62000587565b9050828152602081018484840111156200063e576200063d6200050c565b5b6200064b848285620005dc565b509392505050565b600082601f8301126200066b576200066a62000507565b5b81516200067d84826020860162000608565b91505092915050565b60008060408385031215620006a0576200069f62000498565b5b6000620006b085828601620004f0565b925050602083015167ffffffffffffffff811115620006d457620006d36200049d565b5b620006e28582860162000653565b9150509250929050565b60006020828403121562000705576200070462000498565b5b60006200071584828501620004f0565b91505092915050565b600082825260208201905092915050565b7f455243313936373a206e657720626561636f6e206973206e6f74206120636f6e60008201527f7472616374000000000000000000000000000000000000000000000000000000602082015250565b60006200078d6025836200071e565b91506200079a826200072f565b604082019050919050565b60006020820190508181036000830152620007c0816200077e565b9050919050565b7f455243313936373a20626561636f6e20696d706c656d656e746174696f6e206960008201527f73206e6f74206120636f6e747261637400000000000000000000000000000000602082015250565b6000620008256030836200071e565b91506200083282620007c7565b604082019050919050565b60006020820190508181036000830152620008588162000816565b9050919050565b7f416464726573733a2064656c65676174652063616c6c20746f206e6f6e2d636f60008201527f6e74726163740000000000000000000000000000000000000000000000000000602082015250565b6000620008bd6026836200071e565b9150620008ca826200085f565b604082019050919050565b60006020820190508181036000830152620008f081620008ae565b9050919050565b600081519050919050565b600081905092915050565b60006200091a82620008f7565b62000926818562000902565b935062000938818560208601620005dc565b80840191505092915050565b60006200095282846200090d565b915081905092915050565b600081519050919050565b600062000975826200095d565b6200098181856200071e565b935062000993818560208601620005dc565b6200099e8162000511565b840191505092915050565b60006020820190508181036000830152620009c5818462000968565b905092915050565b61055080620009dd6000396000f3fe6080604052366100135761001161001d565b005b61001b61001d565b005b610025610091565b610035610030610093565b610110565b565b606061005c83836040518060600160405280602781526020016104f460279139610136565b905092915050565b6000808273ffffffffffffffffffffffffffffffffffffffff163b119050919050565b6000819050919050565b565b600061009d610203565b73ffffffffffffffffffffffffffffffffffffffff16635c60da1b6040518163ffffffff1660e01b8152600401602060405180830381865afa1580156100e7573d6000803e3d6000fd5b505050506040513d601f19601f8201168201806040525081019061010b9190610324565b905090565b3660008037600080366000845af43d6000803e8060008114610131573d6000f35b3d6000fd5b606061014184610064565b610180576040517f08c379a0000000000000000000000000000000000000000000000000000000008152600401610177906103d4565b60405180910390fd5b6000808573ffffffffffffffffffffffffffffffffffffffff16856040516101a89190610465565b600060405180830381855af49150503d80600081146101e3576040519150601f19603f3d011682016040523d82523d6000602084013e6101e8565b606091505b50915091506101f882828661025a565b925050509392505050565b60006102317fa3f0ad74e5423aebfd80d3ef4346578335a9a72aeaee59ff6cb3582b35133d5060001b610087565b60000160009054906101000a900473ffffffffffffffffffffffffffffffffffffffff16905090565b6060831561026a578290506102ba565b60008351111561027d5782518084602001fd5b816040517f08c379a00000000000000000000000000000000000000000000000000000000081526004016102b191906104d1565b60405180910390fd5b9392505050565b600080fd5b600073ffffffffffffffffffffffffffffffffffffffff82169050919050565b60006102f1826102c6565b9050919050565b610301816102e6565b811461030c57600080fd5b50565b60008151905061031e816102f8565b92915050565b60006020828403121561033a576103396102c1565b5b60006103488482850161030f565b91505092915050565b600082825260208201905092915050565b7f416464726573733a2064656c65676174652063616c6c20746f206e6f6e2d636f60008201527f6e74726163740000000000000000000000000000000000000000000000000000602082015250565b60006103be602683610351565b91506103c982610362565b604082019050919050565b600060208201905081810360008301526103ed816103b1565b9050919050565b600081519050919050565b600081905092915050565b60005b8381101561042857808201518184015260208101905061040d565b60008484015250505050565b600061043f826103f4565b61044981856103ff565b935061045981856020860161040a565b80840191505092915050565b60006104718284610434565b915081905092915050565b600081519050919050565b6000601f19601f8301169050919050565b60006104a38261047c565b6104ad8185610351565b93506104bd81856020860161040a565b6104c681610487565b840191505092915050565b600060208201905081810360008301526104eb8184610498565b90509291505056fe416464726573733a206c6f772d6c6576656c2064656c65676174652063616c6c206661696c6564a2646970667358221220f1d480e70f55d6eb161f269aa809e34f90c0b1c50fa368b39d23880630cf799864736f6c63430008100033416464726573733a206c6f772d6c6576656c2064656c65676174652063616c6c206661696c6564608060405234801561001057600080fd5b506114a9806100206000396000f3fe60806040523480156200001157600080fd5b50600436106200006a5760003560e01c80631c1b8772146200006f5780635c60da1b146200008f5780636095b4b014620000b1578063a33920af14620000d1578063c5557f3f14620000f1578063ccbce1da1462000113575b600080fd5b6200008d600480360381019062000087919062000757565b62000135565b005b620000996200029b565b604051620000a891906200079a565b60405180910390f35b620000cf6004803603810190620000c99190620007fc565b62000335565b005b620000ef6004803603810190620000e9919062000757565b62000502565b005b620000fb62000693565b6040516200010a91906200079a565b60405180910390f35b6200011d620006b9565b6040516200012c91906200083f565b60405180910390f35b600260009054906101000a900473ffffffffffffffffffffffffffffffffffffffff1673ffffffffffffffffffffffffffffffffffffffff163273ffffffffffffffffffffffffffffffffffffffff1614620001c8576040517f08c379a0000000000000000000000000000000000000000000000000000000008152600401620001bf90620008bd565b60405180910390fd5b60008054906101000a900473ffffffffffffffffffffffffffffffffffffffff1673ffffffffffffffffffffffffffffffffffffffff16633659cfe6826040518263ffffffff1660e01b81526004016200022391906200079a565b600060405180830381600087803b1580156200023e57600080fd5b505af115801562000253573d6000803e3d6000fd5b5050505080600160006101000a81548173ffffffffffffffffffffffffffffffffffffffff021916908373ffffffffffffffffffffffffffffffffffffffff16021790555050565b60008060009054906101000a900473ffffffffffffffffffffffffffffffffffffffff1673ffffffffffffffffffffffffffffffffffffffff16635c60da1b6040518163ffffffff1660e01b8152600401602060405180830381865afa1580156200030a573d6000803e3d6000fd5b505050506040513d601f19601f82011682018060405250810190620003309190620008f6565b905090565b600260009054906101000a900473ffffffffffffffffffffffffffffffffffffffff1673ffffffffffffffffffffffffffffffffffffffff163273ffffffffffffffffffffffffffffffffffffffff1614620003c8576040517f08c379a0000000000000000000000000000000000000000000000000000000008152600401620003bf90620008bd565b60405180910390fd5b8060008173ffffffffffffffffffffffffffffffffffffffff163b1480156200041e5750600073ffffffffffffffffffffffffffffffffffffffff168173ffffffffffffffffffffffffffffffffffffffff1614155b62000460576040517f08c379a0000000000000000000000000000000000000000000000000000000008152600401620004579062000978565b60405180910390fd5b81600260006101000a81548173ffffffffffffffffffffffffffffffffffffffff021916908373ffffffffffffffffffffffffffffffffffffffff1602179055507f17426589daaebcb19f09419b01b5c0857fdfb505f97d94a3570f64d8e7875148600260009054906101000a900473ffffffffffffffffffffffffffffffffffffffff1683604051620004f692919062000a05565b60405180910390a15050565b600073ffffffffffffffffffffffffffffffffffffffff16600160009054906101000a900473ffffffffffffffffffffffffffffffffffffffff1673ffffffffffffffffffffffffffffffffffffffff161462000596576040517f08c379a00000000000000000000000000000000000000000000000000000000081526004016200058d9062000a82565b60405180910390fd5b80604051620005a590620006df565b620005b191906200079a565b604051809103906000f080158015620005ce573d6000803e3d6000fd5b506000806101000a81548173ffffffffffffffffffffffffffffffffffffffff021916908373ffffffffffffffffffffffffffffffffffffffff16021790555080600160006101000a81548173ffffffffffffffffffffffffffffffffffffffff021916908373ffffffffffffffffffffffffffffffffffffffff16021790555032600260006101000a81548173ffffffffffffffffffffffffffffffffffffffff021916908373ffffffffffffffffffffffffffffffffffffffff16021790555050565b600160009054906101000a900473ffffffffffffffffffffffffffffffffffffffff1681565b600260009054906101000a900473ffffffffffffffffffffffffffffffffffffffff1681565b6109cf8062000aa583390190565b600080fd5b600073ffffffffffffffffffffffffffffffffffffffff82169050919050565b60006200071f82620006f2565b9050919050565b620007318162000712565b81146200073d57600080fd5b50565b600081359050620007518162000726565b92915050565b60006020828403121562000770576200076f620006ed565b5b6000620007808482850162000740565b91505092915050565b620007948162000712565b82525050565b6000602082019050620007b1600083018462000789565b92915050565b6000620007c482620006f2565b9050919050565b620007d681620007b7565b8114620007e257600080fd5b50565b600081359050620007f681620007cb565b92915050565b600060208284031215620008155762000814620006ed565b5b60006200082584828501620007e5565b91505092915050565b6200083981620007b7565b82525050565b60006020820190506200085660008301846200082e565b92915050565b600082825260208201905092915050565b7f43616c6c65722773206e6f7420746865206f776e657221000000000000000000600082015250565b6000620008a56017836200085c565b9150620008b2826200086d565b602082019050919050565b60006020820190508181036000830152620008d88162000896565b9050919050565b600081519050620008f08162000726565b92915050565b6000602082840312156200090f576200090e620006ed565b5b60006200091f84828501620008df565b91505092915050565b7f4e6577206f776e657227732061207a65726f2061646472657373210000000000600082015250565b600062000960601b836200085c565b91506200096d8262000928565b602082019050919050565b60006020820190508181036000830152620009938162000951565b9050919050565b6000819050919050565b6000620009c5620009bf620009b984620006f2565b6200099a565b620006f2565b9050919050565b6000620009d982620009a4565b9050919050565b6000620009ed82620009cc565b9050919050565b620009ff81620009e0565b82525050565b600060408201905062000a1c6000830185620009f4565b62000a2b6020830184620009f4565b9392505050565b7f43616e277420696e697469616c697a65206d6f7265207468616e206f6e636521600082015250565b600062000a6a6020836200085c565b915062000a778262000a32565b602082019050919050565b6000602082019050818103600083015262000a9d8162000a5b565b905091905056fe608060405234801561001057600080fd5b506040516109cf3803806109cf8339818101604052810190610032919061024b565b61004e61004361006360201b60201c565b61006b60201b60201c565b61005d8161012f60201b60201c565b5061031b565b600033905090565b60008060009054906101000a900473ffffffffffffffffffffffffffffffffffffffff169050816000806101000a81548173ffffffffffffffffffffffffffffffffffffffff021916908373ffffffffffffffffffffffffffffffffffffffff1602179055508173ffffffffffffffffffffffffffffffffffffffff168173ffffffffffffffffffffffffffffffffffffffff167f8be0079c531659141344cd1fd0a4f28419497f9722a3daafe3b4186f6b6457e060405160405180910390a35050565b610142816101c560201b61021b1760201c565b610181576040517f08c379a0000000000000000000000000000000000000000000000000000000008152600401610178906102fb565b60405180910390fd5b80600160006101000a81548173ffffffffffffffffffffffffffffffffffffffff021916908373ffffffffffffffffffffffffffffffffffffffff16021790555050565b6000808273ffffffffffffffffffffffffffffffffffffffff163b119050919050565b600080fd5b600073ffffffffffffffffffffffffffffffffffffffff82169050919050565b6000610218826101ed565b9050919050565b6102288161020d565b811461023357600080fd5b50565b6000815190506102458161021f565b92915050565b600060208284031215610261576102606101e8565b5b600061026f84828501610236565b91505092915050565b600082825260208201905092915050565b7f5570677261646561626c65426561636f6e3a20696d706c656d656e746174696f60008201527f6e206973206e6f74206120636f6e747261637400000000000000000000000000602082015250565b60006102e5603383610278565b91506102f082610289565b604082019050919050565b60006020820190508181036000830152610314816102d8565b9050919050565b6106a58061032a6000396000f3fe608060405234801561001057600080fd5b50600436106100575760003560e01c80633659cfe61461005c5780635c60da1b14610078578063715018a6146100965780638da5cb5b146100a0578063f2fde38b146100be575b600080fd5b61007660048036038101906100719190610477565b6100da565b005b610080610131565b60405161008d91906104b3565b60405180910390f35b61009e61015b565b005b6100a861016f565b6040516100b591906104b3565b60405180910390f35b6100d860048036038101906100d39190610477565b610198565b005b6100e261023e565b6100eb816102bc565b8073ffffffffffffffffffffffffffffffffffffffff167fbc7cd75a20ee27fd9adebab32041f755214dbc6bffa90cc0225b39da2e5c2d3b60405160405180910390a250565b6000600160009054906101000a900473ffffffffffffffffffffffffffffffffffffffff16905090565b61016361023e565b61016d6000610348565b565b60008060009054906101000a900473ffffffffffffffffffffffffffffffffffffffff16905090565b6101a061023e565b600073ffffffffffffffffffffffffffffffffffffffff168173ffffffffffffffffffffffffffffffffffffffff160361020f576040517f08c379a000000000000000000000000000000000000000000000000000000000815260040161020690610551565b60405180910390fd5b61021881610348565b50565b6000808273ffffffffffffffffffffffffffffffffffffffff163b119050919050565b61024661040c565b73ffffffffffffffffffffffffffffffffffffffff1661026461016f565b73ffffffffffffffffffffffffffffffffffffffff16146102ba576040517f08c379a00000000000000000000000000000000000000000000000000000000081526004016102b1906105bd565b60405180910390fd5b565b6102c58161021b565b610304576040517f08c379a00000000000000000000000000000000000000000000000000000000081526004016102fb9061064f565b60405180910390fd5b80600160006101000a81548173ffffffffffffffffffffffffffffffffffffffff021916908373ffffffffffffffffffffffffffffffffffffffff16021790555050565b60008060009054906101000a900473ffffffffffffffffffffffffffffffffffffffff169050816000806101000a81548173ffffffffffffffffffffffffffffffffffffffff021916908373ffffffffffffffffffffffffffffffffffffffff1602179055508173ffffffffffffffffffffffffffffffffffffffff168173ffffffffffffffffffffffffffffffffffffffff167f8be0079c531659141344cd1fd0a4f28419497f9722a3daafe3b4186f6b6457e060405160405180910390a35050565b600033905090565b600080fd5b600073ffffffffffffffffffffffffffffffffffffffff82169050919050565b600061044482610419565b9050919050565b61045481610439565b811461045f57600080fd5b50565b6000813590506104718161044b565b92915050565b60006020828403121561048d5761048c610414565b5b600061049b84828501610462565b91505092915050565b6104ad81610439565b82525050565b60006020820190506104c860008301846104a4565b92915050565b600082825260208201905092915050565b7f4f776e61626c653a206e6577206f776e657220697320746865207a65726f206160008201527f6464726573730000000000000000000000000000000000000000000000000000602082015250565b600061053b6026836104ce565b9150610546826104df565b604082019050919050565b6000602082019050818103600083015261056a8161052e565b9050919050565b7f4f776e61626c653a2063616c6c6572206973206e6f7420746865206f776e6572600082015250565b60006105a76020836104ce565b91506105b282610571565b602082019050919050565b600060208201905081810360008301526105d68161059a565b9050919050565b7f5570677261646561626c65426561636f6e3a20696d706c656d656e746174696f60008201527f6e206973206e6f74206120636f6e747261637400000000000000000000000000602082015250565b60006106396033836104ce565b9150610644826105dd565b604082019050919050565b600060208201905081810360008301526106688161062c565b905091905056fea2646970667358221220e1e344b4af2daae80b9178d6d48be27cd1c97a171287f58ba40245d8d52423e664736f6c63430008100033a264697066735822122001d5a964d7fc06be2f877f5c77594348dd1337f358dc735dc176fa8bd9e92aac64736f6c63430008100033a26469706673582212209201d72cd1f5e6880b37b5e1d7b02b6db24189848a6a52b97d99eb3bbea4f30764736f6c63430008100033",
  "immutableReferences": {},
  "source": "// SPDX-License-Identifier: MIT\r\npragma solidity >=0.8.0;\r\n\r\nimport \"./escrow.sol\";\r\nimport \"./escrowbeacon.sol\";\r\n\r\ncontract EscrowFactory {\r\n    address payable private factoryOwner;\r\n    mapping(string => mapping(string => address)) private userInfo;\r\n    EscrowBeacon beacon;\r\n\r\n    /**\r\n     * @dev Emitted when a new proxy address for Escrow's deployed.\r\n     */\r\n    event NewProxyAddress(address NewProxyAddress, string dealId);\r\n    \r\n    /**\r\n     * @dev Emitted when ownership of the contract's transferred.\r\n     */\r\n    event OwnershipTransferred(address previousOwner, address newOwner);\r\n\r\n    /**\r\n     * @dev Throws if an owner's preset for this contract.\r\n     */\r\n    modifier initCheck() {\r\n        require(factoryOwner == address(0x0), \"Contract's previously initialised!\");\r\n        _;\r\n    }\r\n\r\n    /**\r\n     * @dev Throws if called by any account other than the owner.\r\n     */\r\n    modifier ownerOnly(){\r\n        require(msg.sender == factoryOwner, \"Caller's not the owner!\");\r\n        _;\r\n    }\r\n\r\n    /**\r\n     * @dev Throws if address passed is not a valid one.\r\n     */\r\n    modifier isAddressValid(address _addr) {\r\n        require(_addr.code.length == 0 && _addr != address(0) , \"New owner's a zero address!\");\r\n        _;\r\n    } \r\n    \r\n    /**\r\n     * @dev Sets the address of initial implementation, and the contract's deployer as the \r\n     * initial owner of the contract.\r\n     */\r\n    function initialize(address _vLogic) \r\n        public \r\n        initCheck\r\n    {\r\n        factoryOwner = payable(msg.sender);\r\n        beacon = new EscrowBeacon();\r\n        beacon.initializer(_vLogic);\r\n    }\r\n\r\n    /**\r\n     * @dev Creates a beacon proxy, sets user's details and deposits ether into\r\n     * the beacon proxy.\r\n     *\r\n     * Emits a {NewProxyAddress} event.\r\n     */\r\n    function createEscrowProxy(\r\n        string memory _userId,\r\n        string memory _dealId,\r\n        address payable _commissionWallet,\r\n        uint256 _minimumEscrowAmount,\r\n        uint256 _commissionRate,\r\n        address payable _seller\r\n    ) \r\n        payable\r\n        external\r\n    {\r\n        BeaconProxy proxy = new BeaconProxy(address(beacon), \r\n            abi.encodeWithSelector(Escrow(address(0)).initializeDeal.selector, _commissionWallet, _minimumEscrowAmount, _commissionRate, factoryOwner)\r\n        );\r\n        emit NewProxyAddress(address(proxy), _dealId);\r\n        setUserDealDetails(_userId, _dealId, address(proxy)); \r\n        Escrow(address(proxy)).escrowParties(_seller);\r\n        Escrow(address(proxy)).deposit{value: msg.value}();\r\n    }\r\n\r\n    /**\r\n     * @dev Sets proxy contract address against the user's specific dealId.\r\n     * Private function without access restriction.\r\n     */\r\n    function setUserDealDetails(\r\n        string memory _userId,\r\n        string memory _dealId, \r\n        address _escrowAddress\r\n    ) \r\n        private\r\n    {\r\n        userInfo[_userId][_dealId] = _escrowAddress;\r\n    }\r\n\r\n    /**\r\n     * @dev Transfers ownership of the contract to a new account (`_newFactoryOwner`).\r\n     * Can only be called by the current owner.\r\n     */\r\n    function transferFactoryOwnership(\r\n        address payable _newFactoryOwner\r\n    ) \r\n        public\r\n        ownerOnly\r\n        isAddressValid (_newFactoryOwner)\r\n    {\r\n        factoryOwner = _newFactoryOwner;\r\n        emit OwnershipTransferred(factoryOwner, _newFactoryOwner);\r\n    }\r\n\r\n    /**\r\n     * @dev Returns the address of the current owner.\r\n     */\r\n    function getFactoryOwner() public view returns (address) {\r\n        return factoryOwner;\r\n    }\r\n\r\n    /**\r\n     * @dev Returns proxy address of a particular user's deal.\r\n     */\r\n    function escrowProxyAddress(\r\n        string memory _userId,\r\n        string memory _dealId\r\n    ) \r\n        public \r\n        view \r\n        returns (address) \r\n    {\r\n        return userInfo[_userId][_dealId];\r\n    }\r\n    \r\n    /**\r\n     * @dev Returns implementation address for a particular beacon.\r\n     */\r\n    function escrowImplAddress() public view returns (address) {\r\n        return beacon.implementation();\r\n    }\r\n\r\n    /**\r\n     * @dev Returns beacon address to which proxy address's point to.\r\n     */\r\n    function escrowBeaconAddress() public view returns (address) {\r\n        return address (beacon);\r\n    }\r\n}\r\n",
  "sourcePath": "C:\\Users\\Keval Sayar\\Desktop\\GV\\escrowSC\\contracts\\factory.sol",
  "compiler": {
    "name": "solc",
    "version": "0.8.16+commit.07a7930e.Emscripten.clang"
  },
  "schemaVersion": "3.4.10",
  "updatedAt": "2022-11-03T06:28:59.309Z",
  "networkType": "ethereum",
  "devdoc": {
    "events": {
      "NewProxyAddress(address,string)": {
        "details": "Emitted when a new proxy address for Escrow's deployed."
      },
      "OwnershipTransferred(address,address)": {
        "details": "Emitted when ownership of the contract's transferred."
      }
    },
    "kind": "dev",
    "methods": {
      "createEscrowProxy(string,string,address,uint256,uint256,address)": {
        "details": "Creates a beacon proxy, sets user's details and deposits ether into the beacon proxy. Emits a {NewProxyAddress} event."
      },
      "escrowBeaconAddress()": {
        "details": "Returns beacon address to which proxy address's point to."
      },
      "escrowImplAddress()": {
        "details": "Returns implementation address for a particular beacon."
      },
      "escrowProxyAddress(string,string)": {
        "details": "Returns proxy address of a particular user's deal."
      },
      "getFactoryOwner()": {
        "details": "Returns the address of the current owner."
      },
      "initialize(address)": {
        "details": "Sets the address of initial implementation, and the contract's deployer as the  initial owner of the contract."
      },
      "transferFactoryOwnership(address)": {
        "details": "Transfers ownership of the contract to a new account (`_newFactoryOwner`). Can only be called by the current owner."
      }
    },
    "version": 1
  },
  "userdoc": {
    "kind": "user",
    "methods": {},
    "version": 1
  }
}