{
  "contractName": "EscrowBeacon",
  "abi": [
    {
      "anonymous": false,
      "inputs": [
        {
          "indexed": false,
          "internalType": "address",
          "name": "previousOwner",
          "type": "address"
        },
        {
          "indexed": false,
          "internalType": "address",
          "name": "newOwner",
          "type": "address"
        }
      ],
      "name": "BeaconOwnershipTransferred",
      "type": "event"
    },
    {
      "inputs": [],
      "name": "beaconOwner",
      "outputs": [
        {
          "internalType": "address payable",
          "name": "",
          "type": "address"
        }
      ],
      "stateMutability": "view",
      "type": "function"
    },
    {
      "inputs": [],
      "name": "vLogic",
      "outputs": [
        {
          "internalType": "address",
          "name": "",
          "type": "address"
        }
      ],
      "stateMutability": "view",
      "type": "function"
    },
    {
      "inputs": [
        {
          "internalType": "address",
          "name": "_vLogic",
          "type": "address"
        }
      ],
      "name": "initializer",
      "outputs": [],
      "stateMutability": "nonpayable",
      "type": "function"
    },
    {
      "inputs": [
        {
          "internalType": "address",
          "name": "_vLogic",
          "type": "address"
        }
      ],
      "name": "update",
      "outputs": [],
      "stateMutability": "nonpayable",
      "type": "function"
    },
    {
      "inputs": [
        {
          "internalType": "address payable",
          "name": "_newBeaconOwner",
          "type": "address"
        }
      ],
      "name": "transferBeaconOwnership",
      "outputs": [],
      "stateMutability": "nonpayable",
      "type": "function"
    },
    {
      "inputs": [],
      "name": "implementation",
      "outputs": [
        {
          "internalType": "address",
          "name": "",
          "type": "address"
        }
      ],
      "stateMutability": "view",
      "type": "function"
    }
  ],
  "bytecode": "0x608060405234801561001057600080fd5b506114a9806100206000396000f3fe60806040523480156200001157600080fd5b50600436106200006a5760003560e01c80631c1b8772146200006f5780635c60da1b146200008f5780636095b4b014620000b1578063a33920af14620000d1578063c5557f3f14620000f1578063ccbce1da1462000113575b600080fd5b6200008d600480360381019062000087919062000757565b62000135565b005b620000996200029b565b604051620000a891906200079a565b60405180910390f35b620000cf6004803603810190620000c99190620007fc565b62000335565b005b620000ef6004803603810190620000e9919062000757565b62000502565b005b620000fb62000693565b6040516200010a91906200079a565b60405180910390f35b6200011d620006b9565b6040516200012c91906200083f565b60405180910390f35b600260009054906101000a900473ffffffffffffffffffffffffffffffffffffffff1673ffffffffffffffffffffffffffffffffffffffff163273ffffffffffffffffffffffffffffffffffffffff1614620001c8576040517f08c379a0000000000000000000000000000000000000000000000000000000008152600401620001bf90620008bd565b60405180910390fd5b60008054906101000a900473ffffffffffffffffffffffffffffffffffffffff1673ffffffffffffffffffffffffffffffffffffffff16633659cfe6826040518263ffffffff1660e01b81526004016200022391906200079a565b600060405180830381600087803b1580156200023e57600080fd5b505af115801562000253573d6000803e3d6000fd5b5050505080600160006101000a81548173ffffffffffffffffffffffffffffffffffffffff021916908373ffffffffffffffffffffffffffffffffffffffff16021790555050565b60008060009054906101000a900473ffffffffffffffffffffffffffffffffffffffff1673ffffffffffffffffffffffffffffffffffffffff16635c60da1b6040518163ffffffff1660e01b8152600401602060405180830381865afa1580156200030a573d6000803e3d6000fd5b505050506040513d601f19601f82011682018060405250810190620003309190620008f6565b905090565b600260009054906101000a900473ffffffffffffffffffffffffffffffffffffffff1673ffffffffffffffffffffffffffffffffffffffff163273ffffffffffffffffffffffffffffffffffffffff1614620003c8576040517f08c379a0000000000000000000000000000000000000000000000000000000008152600401620003bf90620008bd565b60405180910390fd5b8060008173ffffffffffffffffffffffffffffffffffffffff163b1480156200041e5750600073ffffffffffffffffffffffffffffffffffffffff168173ffffffffffffffffffffffffffffffffffffffff1614155b62000460576040517f08c379a0000000000000000000000000000000000000000000000000000000008152600401620004579062000978565b60405180910390fd5b81600260006101000a81548173ffffffffffffffffffffffffffffffffffffffff021916908373ffffffffffffffffffffffffffffffffffffffff1602179055507f17426589daaebcb19f09419b01b5c0857fdfb505f97d94a3570f64d8e7875148600260009054906101000a900473ffffffffffffffffffffffffffffffffffffffff1683604051620004f692919062000a05565b60405180910390a15050565b600073ffffffffffffffffffffffffffffffffffffffff16600160009054906101000a900473ffffffffffffffffffffffffffffffffffffffff1673ffffffffffffffffffffffffffffffffffffffff161462000596576040517f08c379a00000000000000000000000000000000000000000000000000000000081526004016200058d9062000a82565b60405180910390fd5b80604051620005a590620006df565b620005b191906200079a565b604051809103906000f080158015620005ce573d6000803e3d6000fd5b506000806101000a81548173ffffffffffffffffffffffffffffffffffffffff021916908373ffffffffffffffffffffffffffffffffffffffff16021790555080600160006101000a81548173ffffffffffffffffffffffffffffffffffffffff021916908373ffffffffffffffffffffffffffffffffffffffff16021790555032600260006101000a81548173ffffffffffffffffffffffffffffffffffffffff021916908373ffffffffffffffffffffffffffffffffffffffff16021790555050565b600160009054906101000a900473ffffffffffffffffffffffffffffffffffffffff1681565b600260009054906101000a900473ffffffffffffffffffffffffffffffffffffffff1681565b6109cf8062000aa583390190565b600080fd5b600073ffffffffffffffffffffffffffffffffffffffff82169050919050565b60006200071f82620006f2565b9050919050565b620007318162000712565b81146200073d57600080fd5b50565b600081359050620007518162000726565b92915050565b60006020828403121562000770576200076f620006ed565b5b6000620007808482850162000740565b91505092915050565b620007948162000712565b82525050565b6000602082019050620007b1600083018462000789565b92915050565b6000620007c482620006f2565b9050919050565b620007d681620007b7565b8114620007e257600080fd5b50565b600081359050620007f681620007cb565b92915050565b600060208284031215620008155762000814620006ed565b5b60006200082584828501620007e5565b91505092915050565b6200083981620007b7565b82525050565b60006020820190506200085660008301846200082e565b92915050565b600082825260208201905092915050565b7f43616c6c65722773206e6f7420746865206f776e657221000000000000000000600082015250565b6000620008a56017836200085c565b9150620008b2826200086d565b602082019050919050565b60006020820190508181036000830152620008d88162000896565b9050919050565b600081519050620008f08162000726565b92915050565b6000602082840312156200090f576200090e620006ed565b5b60006200091f84828501620008df565b91505092915050565b7f4e6577206f776e657227732061207a65726f2061646472657373210000000000600082015250565b600062000960601b836200085c565b91506200096d8262000928565b602082019050919050565b60006020820190508181036000830152620009938162000951565b9050919050565b6000819050919050565b6000620009c5620009bf620009b984620006f2565b6200099a565b620006f2565b9050919050565b6000620009d982620009a4565b9050919050565b6000620009ed82620009cc565b9050919050565b620009ff81620009e0565b82525050565b600060408201905062000a1c6000830185620009f4565b62000a2b6020830184620009f4565b9392505050565b7f43616e277420696e697469616c697a65206d6f7265207468616e206f6e636521600082015250565b600062000a6a6020836200085c565b915062000a778262000a32565b602082019050919050565b6000602082019050818103600083015262000a9d8162000a5b565b905091905056fe608060405234801561001057600080fd5b506040516109cf3803806109cf8339818101604052810190610032919061024b565b61004e61004361006360201b60201c565b61006b60201b60201c565b61005d8161012f60201b60201c565b5061031b565b600033905090565b60008060009054906101000a900473ffffffffffffffffffffffffffffffffffffffff169050816000806101000a81548173ffffffffffffffffffffffffffffffffffffffff021916908373ffffffffffffffffffffffffffffffffffffffff1602179055508173ffffffffffffffffffffffffffffffffffffffff168173ffffffffffffffffffffffffffffffffffffffff167f8be0079c531659141344cd1fd0a4f28419497f9722a3daafe3b4186f6b6457e060405160405180910390a35050565b610142816101c560201b61021b1760201c565b610181576040517f08c379a0000000000000000000000000000000000000000000000000000000008152600401610178906102fb565b60405180910390fd5b80600160006101000a81548173ffffffffffffffffffffffffffffffffffffffff021916908373ffffffffffffffffffffffffffffffffffffffff16021790555050565b6000808273ffffffffffffffffffffffffffffffffffffffff163b119050919050565b600080fd5b600073ffffffffffffffffffffffffffffffffffffffff82169050919050565b6000610218826101ed565b9050919050565b6102288161020d565b811461023357600080fd5b50565b6000815190506102458161021f565b92915050565b600060208284031215610261576102606101e8565b5b600061026f84828501610236565b91505092915050565b600082825260208201905092915050565b7f5570677261646561626c65426561636f6e3a20696d706c656d656e746174696f60008201527f6e206973206e6f74206120636f6e747261637400000000000000000000000000602082015250565b60006102e5603383610278565b91506102f082610289565b604082019050919050565b60006020820190508181036000830152610314816102d8565b9050919050565b6106a58061032a6000396000f3fe608060405234801561001057600080fd5b50600436106100575760003560e01c80633659cfe61461005c5780635c60da1b14610078578063715018a6146100965780638da5cb5b146100a0578063f2fde38b146100be575b600080fd5b61007660048036038101906100719190610477565b6100da565b005b610080610131565b60405161008d91906104b3565b60405180910390f35b61009e61015b565b005b6100a861016f565b6040516100b591906104b3565b60405180910390f35b6100d860048036038101906100d39190610477565b610198565b005b6100e261023e565b6100eb816102bc565b8073ffffffffffffffffffffffffffffffffffffffff167fbc7cd75a20ee27fd9adebab32041f755214dbc6bffa90cc0225b39da2e5c2d3b60405160405180910390a250565b6000600160009054906101000a900473ffffffffffffffffffffffffffffffffffffffff16905090565b61016361023e565b61016d6000610348565b565b60008060009054906101000a900473ffffffffffffffffffffffffffffffffffffffff16905090565b6101a061023e565b600073ffffffffffffffffffffffffffffffffffffffff168173ffffffffffffffffffffffffffffffffffffffff160361020f576040517f08c379a000000000000000000000000000000000000000000000000000000000815260040161020690610551565b60405180910390fd5b61021881610348565b50565b6000808273ffffffffffffffffffffffffffffffffffffffff163b119050919050565b61024661040c565b73ffffffffffffffffffffffffffffffffffffffff1661026461016f565b73ffffffffffffffffffffffffffffffffffffffff16146102ba576040517f08c379a00000000000000000000000000000000000000000000000000000000081526004016102b1906105bd565b60405180910390fd5b565b6102c58161021b565b610304576040517f08c379a00000000000000000000000000000000000000000000000000000000081526004016102fb9061064f565b60405180910390fd5b80600160006101000a81548173ffffffffffffffffffffffffffffffffffffffff021916908373ffffffffffffffffffffffffffffffffffffffff16021790555050565b60008060009054906101000a900473ffffffffffffffffffffffffffffffffffffffff169050816000806101000a81548173ffffffffffffffffffffffffffffffffffffffff021916908373ffffffffffffffffffffffffffffffffffffffff1602179055508173ffffffffffffffffffffffffffffffffffffffff168173ffffffffffffffffffffffffffffffffffffffff167f8be0079c531659141344cd1fd0a4f28419497f9722a3daafe3b4186f6b6457e060405160405180910390a35050565b600033905090565b600080fd5b600073ffffffffffffffffffffffffffffffffffffffff82169050919050565b600061044482610419565b9050919050565b61045481610439565b811461045f57600080fd5b50565b6000813590506104718161044b565b92915050565b60006020828403121561048d5761048c610414565b5b600061049b84828501610462565b91505092915050565b6104ad81610439565b82525050565b60006020820190506104c860008301846104a4565b92915050565b600082825260208201905092915050565b7f4f776e61626c653a206e6577206f776e657220697320746865207a65726f206160008201527f6464726573730000000000000000000000000000000000000000000000000000602082015250565b600061053b6026836104ce565b9150610546826104df565b604082019050919050565b6000602082019050818103600083015261056a8161052e565b9050919050565b7f4f776e61626c653a2063616c6c6572206973206e6f7420746865206f776e6572600082015250565b60006105a76020836104ce565b91506105b282610571565b602082019050919050565b600060208201905081810360008301526105d68161059a565b9050919050565b7f5570677261646561626c65426561636f6e3a20696d706c656d656e746174696f60008201527f6e206973206e6f74206120636f6e747261637400000000000000000000000000602082015250565b60006106396033836104ce565b9150610644826105dd565b604082019050919050565b600060208201905081810360008301526106688161062c565b905091905056fea2646970667358221220e1e344b4af2daae80b9178d6d48be27cd1c97a171287f58ba40245d8d52423e664736f6c63430008100033a264697066735822122001d5a964d7fc06be2f877f5c77594348dd1337f358dc735dc176fa8bd9e92aac64736f6c63430008100033",
  "immutableReferences": {},
  "source": "// SPDX-License-Identifier: MIT\r\npragma solidity >=0.8.0;\r\n\r\nimport \"@openzeppelin/contracts/proxy/beacon/BeaconProxy.sol\";\r\nimport \"@openzeppelin/contracts/proxy/beacon/UpgradeableBeacon.sol\";\r\n\r\ncontract EscrowBeacon {\r\n\r\n    UpgradeableBeacon beacon;\r\n    \r\n    address public vLogic;\r\n    address payable public beaconOwner;\r\n\r\n    /**\r\n     * @dev Emitted when ownership of the contract's transferred.\r\n     */\r\n    event BeaconOwnershipTransferred(address previousOwner, address newOwner);\r\n\r\n    /**\r\n     * @dev Throws if an implementation's preset for this contract.\r\n     */\r\n    modifier initCheck() {\r\n        require(vLogic == address(0x0), \"Can't initialize more than once!\");\r\n        _;\r\n    }\r\n\r\n    /**\r\n     * @dev Throws if called by any account other than the owner.\r\n     */\r\n    modifier ownerOnly(){\r\n        require(tx.origin == beaconOwner, \"Caller's not the owner!\");\r\n        _;\r\n    }\r\n    \r\n    /**\r\n     * @dev Throws if address passed is not a valid one.\r\n     */\r\n    modifier isAddressValid(address _addr) {\r\n        require(_addr.code.length == 0 && _addr != address(0) , \"New owner's a zero address!\");\r\n        _;\r\n    } \r\n\r\n    /**\r\n     * @dev Sets the address of initial implementation, and the contract's deployer as the \r\n     * initial owner of the contract.\r\n     */\r\n    function initializer(address _vLogic) public initCheck{\r\n        beacon = new UpgradeableBeacon(_vLogic);\r\n        vLogic = _vLogic;\r\n        beaconOwner = payable(tx.origin);\r\n    }\r\n\r\n    /**\r\n     * @dev Upgrades the beacon to a new implementation.\r\n     *\r\n     * Requirements:\r\n     *\r\n     * - tx.origin must be owner of the contract.\r\n     * - `_newEscrowImplAddress` must be a contract.\r\n     */\r\n    function update(address _vLogic) public ownerOnly{\r\n        beacon.upgradeTo(_vLogic);\r\n        vLogic = _vLogic;\r\n    }\r\n\r\n    /**\r\n     * @dev Transfers ownership of the contract to a new account (`_newBeaconOwner`).\r\n     * Can only be called by the current owner.\r\n     *\r\n     * Emits an {OwnershipTransferred} event.\r\n     */\r\n    function transferBeaconOwnership(\r\n        address payable _newBeaconOwner\r\n    ) \r\n        public\r\n        ownerOnly\r\n        isAddressValid (_newBeaconOwner)\r\n    {\r\n        beaconOwner = _newBeaconOwner;\r\n        emit BeaconOwnershipTransferred(beaconOwner, _newBeaconOwner);\r\n    }\r\n\r\n    function implementation() public view returns(address) {\r\n        return beacon.implementation();\r\n    }\r\n\r\n}",
  "sourcePath": "C:\\Users\\Keval Sayar\\Desktop\\GV\\escrowSC\\contracts\\escrowbeacon.sol",
  "compiler": {
    "name": "solc",
    "version": "0.8.16+commit.07a7930e.Emscripten.clang"
  },
  "schemaVersion": "3.4.10",
  "updatedAt": "2022-11-03T06:27:22.050Z",
  "devdoc": {
    "events": {
      "BeaconOwnershipTransferred(address,address)": {
        "details": "Emitted when ownership of the contract's transferred."
      }
    },
    "kind": "dev",
    "methods": {
      "initializer(address)": {
        "details": "Sets the address of initial implementation, and the contract's deployer as the  initial owner of the contract."
      },
      "transferBeaconOwnership(address)": {
        "details": "Transfers ownership of the contract to a new account (`_newBeaconOwner`). Can only be called by the current owner. Emits an {OwnershipTransferred} event."
      },
      "update(address)": {
        "details": "Upgrades the beacon to a new implementation. Requirements: - tx.origin must be owner of the contract. - `_newEscrowImplAddress` must be a contract."
      }
    },
    "version": 1
  },
  "userdoc": {
    "kind": "user",
    "methods": {},
    "version": 1
  }
}